{"abi":[{"type":"constructor","inputs":[{"name":"_participants","type":"address[]","internalType":"address[]"},{"name":"_degree","type":"uint16","internalType":"uint16"},{"name":"_peer_keys","type":"bytes","internalType":"bytes"}],"stateMutability":"nonpayable"},{"type":"function","name":"activeIds","inputs":[{"name":"","type":"uint256","internalType":"uint256"}],"outputs":[{"name":"","type":"uint128","internalType":"uint128"}],"stateMutability":"view"},{"type":"function","name":"addFinalizeContribtion","inputs":[{"name":"id","type":"uint128","internalType":"uint128"}],"outputs":[],"stateMutability":"nonpayable"},{"type":"function","name":"addRound1Contribution","inputs":[{"name":"id","type":"uint128","internalType":"uint128"},{"name":"commitment","type":"bytes","internalType":"bytes"}],"outputs":[],"stateMutability":"nonpayable"},{"type":"function","name":"addRound2Contribution","inputs":[{"name":"id","type":"uint128","internalType":"uint128"},{"name":"ciphertext","type":"bytes","internalType":"bytes"}],"outputs":[],"stateMutability":"nonpayable"},{"type":"function","name":"degree","inputs":[],"outputs":[{"name":"","type":"uint16","internalType":"uint16"}],"stateMutability":"view"},{"type":"function","name":"getMyId","inputs":[],"outputs":[{"name":"","type":"uint256","internalType":"uint256"}],"stateMutability":"view"},{"type":"function","name":"getRpNullifierKey","inputs":[{"name":"id","type":"uint128","internalType":"uint128"}],"outputs":[{"name":"","type":"tuple[]","internalType":"struct KeyGen.RpSecretGenCommitment[]","components":[{"name":"data","type":"bytes","internalType":"bytes"}]}],"stateMutability":"view"},{"type":"function","name":"initKeyGen","inputs":[{"name":"id","type":"uint128","internalType":"uint128"},{"name":"ecdsaPubKey","type":"bytes","internalType":"bytes"}],"outputs":[],"stateMutability":"nonpayable"},{"type":"function","name":"participantIndex","inputs":[{"name":"","type":"address","internalType":"address"}],"outputs":[{"name":"","type":"uint256","internalType":"uint256"}],"stateMutability":"view"},{"type":"function","name":"participants","inputs":[{"name":"","type":"uint256","internalType":"uint256"}],"outputs":[{"name":"","type":"address","internalType":"address"}],"stateMutability":"view"},{"type":"function","name":"peer_keys","inputs":[],"outputs":[{"name":"","type":"bytes","internalType":"bytes"}],"stateMutability":"view"},{"type":"event","name":"SecretGenFinalize","inputs":[{"name":"rpId","type":"uint128","indexed":true,"internalType":"uint128"},{"name":"rpPublicKey","type":"bytes","indexed":false,"internalType":"bytes"},{"name":"round1Contributions","type":"tuple[]","indexed":false,"internalType":"struct KeyGen.RpSecretGenCommitment[]","components":[{"name":"data","type":"bytes","internalType":"bytes"}]},{"name":"round2Contributions","type":"tuple[]","indexed":false,"internalType":"struct KeyGen.RpSecretGenCiphertexts[]","components":[{"name":"data","type":"bytes","internalType":"bytes"}]}],"anonymous":false},{"type":"event","name":"SecretGenRound1","inputs":[{"name":"rpId","type":"uint128","indexed":true,"internalType":"uint128"},{"name":"degree","type":"uint16","indexed":false,"internalType":"uint16"}],"anonymous":false},{"type":"event","name":"SecretGenRound2","inputs":[{"name":"rpId","type":"uint128","indexed":true,"internalType":"uint128"},{"name":"peerPublicKeyList","type":"bytes","indexed":false,"internalType":"bytes"}],"anonymous":false}],"bytecode":{"object":"0x60806040523461035d57611c368038038061001981610381565b92833981019060608183031261035d5780516001600160401b03811161035d57810182601f8201121561035d578051906001600160401b0382116102cd578160051b906020610069818401610381565b809481520190602082938201019086821161035d57602001915b8183106103615750505060208301519261ffff841680940361035d576040810151906001600160401b03821161035d570184601f8201121561035d578051906001600160401b0382116102cd576100e3601f8301601f1916602001610381565b958287526020838301011161035d57815f9260208093018389015e86010152815115610324578151906001600160401b0382116102cd576801000000000000000082116102cd575f54825f558083106102fe575b505f8080525f516020611c165f395f51905f52905b8381106102e157505050505f5b815181101561018857600190818060a01b0360208260051b85010151165f52816020528060405f205501610159565b505081516001600160401b0381116102cd57600554600181811c911680156102c3575b60208210146102af57601f8111610273575b50602092601f821160011461021257928192935f92610207575b50508160011b915f199060031b1c1916176005555b61ffff19600654161760065560405161185990816103bd8239f35b015190505f806101d7565b601f1982169360055f52805f20915f5b86811061025b5750836001959610610243575b505050811b016005556101ec565b01515f1960f88460031b161c191690555f8080610235565b91926020600181928685015181550194019201610222565b61029f9060055f5260205f20601f840160051c810191602085106102a5575b601f0160051c01906103a6565b5f6101bd565b9091508190610292565b634e487b7160e01b5f52602260045260245ffd5b90607f16906101ab565b634e487b7160e01b5f52604160045260245ffd5b82516001600160a01b03168183015560209092019160010161014c565b5f805261031e905f516020611c165f395f51905f529081019084016103a6565b5f610137565b60405162461bcd60e51b81526020600482015260116024820152704e656564207061727469636970616e747360781b6044820152606490fd5b5f80fd5b82516001600160a01b038116810361035d57815260209283019201610083565b6040519190601f01601f191682016001600160401b038111838210176102cd57604052565b8181106103b1575050565b5f81556001016103a656fe6080806040526004361015610012575f80fd5b5f3560e01c908163083b913714610dd95750806315b6da2214610c0f57806327ed00ee14610bbe5780632931c44514610a6e57806335c1d349146109d45780633698b8611461096c57806367d3f2c4146107cf5780639546d98b1461076f578063d57c925b146104e2578063e9b43843146100d85763f35d710214610095575f80fd5b346100d4575f7ffffffffffffffffffffffffffffffffffffffffffffffffffffffffffffffffc3601126100d457602061ffff60065416604051908152f35b5f80fd5b346100d4576fffffffffffffffffffffffffffffffff6100f736610ed5565b919290921690815f52600260205260405f2090815461011581610f60565b6104845767ffffffffffffffff821161026f578161013561013b92610f60565b846112b8565b5f601f82116001146103e55781906101889394955f926103da575b50507fffffffffffffffffffffffffffffffffffffffffffffffffffffffffffffffff8260011b9260031b1c19161790565b81555b5f546001820180545f8255806103af575b506002830180545f825580610384575b50600384019283545f855580610364575b50916020905f5b84811061029c5787600488017fffffffffffffffffffffffffffffffffffffffffffffffffffffffffffff000081541690556004546801000000000000000081101561026f5780600161021a9201600455610eb3565b81549060031b906fffffffffffffffffffffffffffffffff84831b921b19161790557f344a335eb069c0d8ae475be476d5c89943e40ce500cd013b474584bc049deacb602061ffff60065416604051908152a2005b7f4e487b71000000000000000000000000000000000000000000000000000000005f52604160045260245ffd5b6040516102a88161110e565b6040516102b5858261112a565b5f815281528254906801000000000000000082101561026f576102e18260016102e79401865585610e9e565b90611532565b6040516102f38161110e565b604051610300858261112a565b5f815281528454906801000000000000000082101561026f576102e182600161032c9401885587610e9e565b8554906801000000000000000082101561026f576103518260018094018955886111d0565b60ff82549160031b1b19169055016101c4565b61037e90855f52601f60205f20910160051c810190611253565b866101bd565b815f5260205f20908101905b81811061039d57506101ac565b806103a9600192611269565b01610390565b815f5260205f20908101905b8181106103c8575061019c565b806103d4600192611269565b016103bb565b013590508580610156565b7fffffffffffffffffffffffffffffffffffffffffffffffffffffffffffffffe0821694835f5260205f20915f5b87811061046c575083600195969710610434575b505050811b01815561018b565b7fffffffffffffffffffffffffffffffffffffffffffffffffffffffffffffffff60f88560031b161c19910135169055848080610427565b90926020600181928686013581550194019101610413565b60646040517f08c379a000000000000000000000000000000000000000000000000000000000815260206004820152600e60248201527f53657373696f6e206578697374730000000000000000000000000000000000006044820152fd5b346100d4576104f036610ed5565b91335f52600160205260405f2054926fffffffffffffffffffffffffffffffff6040925f806105936105c58751610527898261112a565b600881527f686173206964783a000000000000000000000000000000000000000000000000602082015288519283917f67dd6ff1000000000000000000000000000000000000000000000000000000006020840152336024840152606060448401526084830190610e5b565b8b6064830152037fffffffffffffffffffffffffffffffffffffffffffffffffffffffffffffffe0810183528261112a565b6020815191016a636f6e736f6c652e6c6f675afa506105e65f54871061116b565b1693845f526002602052825f20936105fe8554610f60565b156107125761064b92916102e191610644600188019161063161062b6106248686610e9e565b5054610f60565b156111ee565b87519561063d8761110e565b36916114ce565b8452610e9e565b610654826117f1565b80610703575b61066057005b60047f29ced2c7e4e02834ffa8f85e6a9b7111e29dcebb696389757b9ba49646660118926106c28351610693858261112a565b601d81527f492077696c6c20656d6974207365637265742067656e20726f756e64320000006020820152611768565b0160017fffffffffffffffffffffffffffffffffffffffffffffffffffffffffffffff008254161790555160208152806106fe60208201610fb1565b0390a2005b5060ff6004830154161561065a565b606484517f08c379a000000000000000000000000000000000000000000000000000000000815260206004820152601760248201527f53657373696f6e206e6f7420696e697469616c697a65640000000000000000006044820152fd5b346100d4575f7ffffffffffffffffffffffffffffffffffffffffffffffffffffffffffffffffc3601126100d4576107cb6040516107b7816107b081610fb1565b038261112a565b604051918291602083526020830190610e5b565b0390f35b346100d4576107dd36610ed5565b90335f5260016020526fffffffffffffffffffffffffffffffff60405f2054936108095f54861061116b565b1692835f52600260205260405f2092610821846117f1565b1561090e576102e161085a92610852600287019561084561062b610624858a610e9e565b6040519461063d8661110e565b835284610e9e565b610863826116f6565b806108fc575b61086f57005b816106fe6108ee9260047f96e83c0d2629ef1d85e7bcfe950d19abd1e2268ca41a32fb9648c56bd1780ced95016101007fffffffffffffffffffffffffffffffffffffffffffffffffffffffffffff00ff8254161790556040519384936060855260016108df606087018361106e565b91868303602088015201611678565b908382036040850152611678565b5060ff600483015460081c1615610869565b60646040517f08c379a000000000000000000000000000000000000000000000000000000000815260206004820152601360248201527f526f756e6431206e6f7420636f6d706c657465000000000000000000000000006044820152fd5b346100d45760207ffffffffffffffffffffffffffffffffffffffffffffffffffffffffffffffffc3601126100d4576004356004548110156100d4576fffffffffffffffffffffffffffffffff6109c4602092610eb3565b90549060031b1c16604051908152f35b346100d45760207ffffffffffffffffffffffffffffffffffffffffffffffffffffffffffffffffc3601126100d4576004355f548110156100d4575f54811015610a415773ffffffffffffffffffffffffffffffffffffffff6020915f8052825f20015416604051908152f35b7f4e487b71000000000000000000000000000000000000000000000000000000005f52603260045260245ffd5b346100d45760207ffffffffffffffffffffffffffffffffffffffffffffffffffffffffffffffffc3601126100d4576fffffffffffffffffffffffffffffffff610ab6610e3c565b165f52600360205260405f2080549067ffffffffffffffff821161026f5760405191610ae860208260051b018461112a565b8083526020830180925f5260205f205f915b838310610b8b57848660405191829160208301906020845251809152604083019060408160051b85010192915f905b828210610b3857505050500390f35b91936020610b7b827fffffffffffffffffffffffffffffffffffffffffffffffffffffffffffffffc0600195979984950301865282895151918181520190610e5b565b9601920192018594939192610b29565b600160208192604051610b9d8161110e565b604051610bae816107b0818a61106e565b8152815201920192019190610afa565b346100d4575f7ffffffffffffffffffffffffffffffffffffffffffffffffffffffffffffffffc3601126100d457335f526001602052602060405f2054610c075f54821061116b565b604051908152f35b346100d45760207ffffffffffffffffffffffffffffffffffffffffffffffffffffffffffffffffc3601126100d457610c46610e3c565b335f5260016020526fffffffffffffffffffffffffffffffff60405f205491610c715f54841061116b565b16805f52600260205260405f2091610c88836116f6565b15610d7b57610cb79060038401610cb260ff610ca484846111d0565b90549060031b1c16156111ee565b6111d0565b81549060031b9060ff6001831b921b1916179055610cd48261172f565b80610d69575b610ce057005b816001916004610d279401620100007fffffffffffffffffffffffffffffffffffffffffffffffffffffffffff00ffff8254161790555f5260036020520160405f20611430565b610d67604051610d3860408261112a565b601581527f63726561746564206e756c6c6966696572206b657900000000000000000000006020820152611768565b005b5060ff600483015460101c1615610cda565b60646040517f08c379a000000000000000000000000000000000000000000000000000000000815260206004820152601360248201527f526f756e6432206e6f7420636f6d706c657465000000000000000000000000006044820152fd5b346100d45760207ffffffffffffffffffffffffffffffffffffffffffffffffffffffffffffffffc3601126100d4576004359073ffffffffffffffffffffffffffffffffffffffff82168092036100d4576020915f526001825260405f20548152f35b600435906fffffffffffffffffffffffffffffffff821682036100d457565b907fffffffffffffffffffffffffffffffffffffffffffffffffffffffffffffffe0601f602080948051918291828752018686015e5f8582860101520116010190565b8054821015610a41575f5260205f2001905f90565b90600454821015610a415760045f52601060205f208360011c019260041b1690565b60407ffffffffffffffffffffffffffffffffffffffffffffffffffffffffffffffffc8201126100d4576004356fffffffffffffffffffffffffffffffff811681036100d4579160243567ffffffffffffffff81116100d457826023820112156100d45780600401359267ffffffffffffffff84116100d457602484830101116100d4576024019190565b90600182811c92168015610fa7575b6020831014610f7a57565b7f4e487b71000000000000000000000000000000000000000000000000000000005f52602260045260245ffd5b91607f1691610f6f565b6005545f9291610fc082610f60565b80825291600181169081156110345750600114610fdb575050565b60055f9081529293509091907f036b6384b5eca791c62761152d0c79bb0604c104a5fb6f4eb0703f3154bb3db05b83831061101a575060209250010190565b600181602092949394548385870101520191019190611009565b60209495507fffffffffffffffffffffffffffffffffffffffffffffffffffffffffffffff0091509291921683830152151560051b010190565b5f929181549161107d83610f60565b80835292600181169081156110d2575060011461109957505050565b5f9081526020812093945091925b8383106110b8575060209250010190565b6001816020929493945483858701015201910191906110a7565b905060209495507fffffffffffffffffffffffffffffffffffffffffffffffffffffffffffffff0091509291921683830152151560051b010190565b6020810190811067ffffffffffffffff82111761026f57604052565b90601f7fffffffffffffffffffffffffffffffffffffffffffffffffffffffffffffffe0910116810190811067ffffffffffffffff82111761026f57604052565b1561117257565b60646040517f08c379a000000000000000000000000000000000000000000000000000000000815260206004820152601160248201527f4e6f742061207061727469636970616e740000000000000000000000000000006044820152fd5b9190918054831015610a41575f52601f60205f208360051c01921690565b156111f557565b60646040517f08c379a000000000000000000000000000000000000000000000000000000000815260206004820152601160248201527f416c7265616479207375626d69747465640000000000000000000000000000006044820152fd5b81811061125e575050565b5f8155600101611253565b6112738154610f60565b908161127d575050565b81601f5f931160011461128f5750555b565b818352602083206112ab91601f0160051c810190600101611253565b8082528160208120915555565b9190601f81116112c757505050565b61128d925f5260205f20906020601f840160051c830193106112f1575b601f0160051c0190611253565b90915081906112e4565b91909182811461142b5761130f8354610f60565b67ffffffffffffffff811161026f5761132c816101358454610f60565b5f93601f82116001146113885761137992939482915f9261137d5750507fffffffffffffffffffffffffffffffffffffffffffffffffffffffffffffffff8260011b9260031b1c19161790565b9055565b015490505f80610156565b7fffffffffffffffffffffffffffffffffffffffffffffffffffffffffffffffe08216905f5260205f2094835f5260205f20915f5b818110611413575095836001959697106113dc575b505050811b019055565b01547fffffffffffffffffffffffffffffffffffffffffffffffffffffffffffffffff60f88460031b161c191690555f80806113d2565b9192600180602092868b0154815501940192016113bd565b509050565b8181146114ca5781549168010000000000000000831161026f57815483835580841061149d575b505f5260205f20905f5260205f205f915b8383106114755750505050565b600180828193850361148e575b01920192019190611468565b61149881866112fb565b611482565b825f528360205f2091820191015b8181106114b85750611457565b806114c4600192611269565b016114ab565b5050565b92919267ffffffffffffffff821161026f5760405191611516601f82017fffffffffffffffffffffffffffffffffffffffffffffffffffffffffffffffe0166020018461112a565b8294818452818301116100d4578281602093845f960137010152565b92919061164c575191825167ffffffffffffffff811161026f5761155a816101358454610f60565b6020601f82116001146115b25781906113799394955f926115a75750507fffffffffffffffffffffffffffffffffffffffffffffffffffffffffffffffff8260011b9260031b1c19161790565b015190505f80610156565b7fffffffffffffffffffffffffffffffffffffffffffffffffffffffffffffffe0821690835f52805f20915f5b818110611634575095836001959697106115fd57505050811b019055565b01517fffffffffffffffffffffffffffffffffffffffffffffffffffffffffffffffff60f88460031b161c191690555f80806113d2565b9192602060018192868b0151815501940192016115df565b7f4e487b71000000000000000000000000000000000000000000000000000000005f525f60045260245ffd5b90806020835491828152019160208260051b820101935f5260205f20925f915b8383106116a757505050505090565b9091929394602060016116e782847fffffffffffffffffffffffffffffffffffffffffffffffffffffffffffffffe087859703018852818152018961106e565b97019301930191939290611698565b5f905f54915b82811061170b57505050600190565b61171b6106248260028501610e9e565b15611728576001016116fc565b5050505f90565b5f905f54915b82811061174457505050600190565b60ff61175382600385016111d0565b90549060031b1c161561172857600101611735565b5f6117ae6117da82936040519283917f41304fac000000000000000000000000000000000000000000000000000000006020840152602060248401526044830190610e5b565b037fffffffffffffffffffffffffffffffffffffffffffffffffffffffffffffffe0810183528261112a565b6020815191016a636f6e736f6c652e6c6f675afa50565b5f905f54915b82811061180657505050600190565b6118166106248260018501610e9e565b15611728576001016117f756fea2646970667358221220e278d510cf7ed62a86baa88806a3d2c8d20c489771f72ef1f7df647640c67d7064736f6c634300081e0033290decd9548b62a8d60345a988386fc84ba6bc95484008f6362f93160ef3e563","linkReferences":{}},"methodIdentifiers":{"activeIds(uint256)":"3698b861","addFinalizeContribtion(uint128)":"15b6da22","addRound1Contribution(uint128,bytes)":"d57c925b","addRound2Contribution(uint128,bytes)":"67d3f2c4","degree()":"f35d7102","getMyId()":"27ed00ee","getRpNullifierKey(uint128)":"2931c445","initKeyGen(uint128,bytes)":"e9b43843","participantIndex(address)":"083b9137","participants(uint256)":"35c1d349","peer_keys()":"9546d98b"},"id":43}